{
  "contractName": "KeyHolder",
  "abi": [
    {
      "constant": true,
      "inputs": [
        {
          "name": "_key",
          "type": "bytes32"
        }
      ],
      "name": "getKeyPurpose",
      "outputs": [
        {
          "name": "purpose",
          "type": "uint256"
        }
      ],
      "payable": false,
      "stateMutability": "view",
      "type": "function"
    },
    {
      "constant": true,
      "inputs": [
        {
          "name": "_key",
          "type": "bytes32"
        }
      ],
      "name": "getKey",
      "outputs": [
        {
          "name": "purpose",
          "type": "uint256"
        },
        {
          "name": "keyType",
          "type": "uint256"
        },
        {
          "name": "key",
          "type": "bytes32"
        }
      ],
      "payable": false,
      "stateMutability": "view",
      "type": "function"
    },
    {
      "constant": false,
      "inputs": [
        {
          "name": "_key",
          "type": "bytes32"
        },
        {
          "name": "_purpose",
          "type": "uint256"
        },
        {
          "name": "_type",
          "type": "uint256"
        }
      ],
      "name": "addKey",
      "outputs": [
        {
          "name": "success",
          "type": "bool"
        }
      ],
      "payable": false,
      "stateMutability": "nonpayable",
      "type": "function"
    },
    {
      "constant": true,
      "inputs": [
        {
          "name": "_key",
          "type": "bytes32"
        }
      ],
      "name": "keyExist",
      "outputs": [
        {
          "name": "",
          "type": "bool"
        }
      ],
      "payable": false,
      "stateMutability": "view",
      "type": "function"
    },
    {
      "constant": false,
      "inputs": [
        {
          "name": "_key",
          "type": "bytes32"
        },
        {
          "name": "_purpose",
          "type": "uint256"
        }
      ],
      "name": "removeKey",
      "outputs": [
        {
          "name": "success",
          "type": "bool"
        }
      ],
      "payable": false,
      "stateMutability": "nonpayable",
      "type": "function"
    },
    {
      "constant": true,
      "inputs": [
        {
          "name": "_purpose",
          "type": "uint256"
        }
      ],
      "name": "getKeysByPurpose",
      "outputs": [
        {
          "name": "",
          "type": "bytes32[]"
        }
      ],
      "payable": false,
      "stateMutability": "view",
      "type": "function"
    },
    {
      "constant": false,
      "inputs": [
        {
          "name": "_keys",
          "type": "bytes32[]"
        },
        {
          "name": "_purposes",
          "type": "uint256[]"
        },
        {
          "name": "_types",
          "type": "uint256[]"
        }
      ],
      "name": "addKeys",
      "outputs": [
        {
          "name": "success",
          "type": "bool"
        }
      ],
      "payable": false,
      "stateMutability": "nonpayable",
      "type": "function"
    },
    {
      "constant": true,
      "inputs": [
        {
          "name": "_key",
          "type": "bytes32"
        },
        {
          "name": "_purpose",
          "type": "uint256"
        }
      ],
      "name": "keyHasPurpose",
      "outputs": [
        {
          "name": "result",
          "type": "bool"
        }
      ],
      "payable": false,
      "stateMutability": "view",
      "type": "function"
    },
    {
      "constant": true,
      "inputs": [
        {
          "name": "",
          "type": "bytes32"
        }
      ],
      "name": "keys",
      "outputs": [
        {
          "name": "purpose",
          "type": "uint256"
        },
        {
          "name": "keyType",
          "type": "uint256"
        },
        {
          "name": "key",
          "type": "bytes32"
        }
      ],
      "payable": false,
      "stateMutability": "view",
      "type": "function"
    },
    {
      "inputs": [
        {
          "name": "_key",
          "type": "bytes32"
        }
      ],
      "payable": false,
      "stateMutability": "nonpayable",
      "type": "constructor"
    },
    {
      "payable": true,
      "stateMutability": "payable",
      "type": "fallback"
    },
    {
      "anonymous": false,
      "inputs": [
        {
          "indexed": false,
          "name": "count",
          "type": "uint256"
        }
      ],
      "name": "MultipleKeysAdded",
      "type": "event"
    },
    {
      "anonymous": false,
      "inputs": [
        {
          "indexed": true,
          "name": "key",
          "type": "bytes32"
        },
        {
          "indexed": true,
          "name": "purpose",
          "type": "uint256"
        },
        {
          "indexed": true,
          "name": "keyType",
          "type": "uint256"
        }
      ],
      "name": "KeyAdded",
      "type": "event"
    },
    {
      "anonymous": false,
      "inputs": [
        {
          "indexed": true,
          "name": "key",
          "type": "bytes32"
        },
        {
          "indexed": true,
          "name": "purpose",
          "type": "uint256"
        },
        {
          "indexed": true,
          "name": "keyType",
          "type": "uint256"
        }
      ],
      "name": "KeyRemoved",
      "type": "event"
    }
  ],
  "source": "\npragma solidity ^0.5.0;\n\nimport \"./IERC725KeyHolder.sol\";\n\ncontract KeyHolder is IERC725KeyHolder {\n    mapping (bytes32 => Key) public keys;\n    mapping (uint256 => bytes32[]) keysByPurpose;\n\n    constructor(bytes32 _key) public {\n        keys[_key].key = _key;\n        keys[_key].purpose = MANAGEMENT_KEY;\n        keys[_key].keyType = ECDSA_TYPE;\n\n        keysByPurpose[MANAGEMENT_KEY].push(_key);\n\n        emit KeyAdded(keys[_key].key,  keys[_key].purpose, keys[_key].keyType);\n    }\n\n    function() external payable {\n\n    }\n\n    modifier onlyManagementOrActionKeys(bytes32 sender) {\n        bool isActionKey = keyHasPurpose(sender, ACTION_KEY);\n        bool isManagementKey = keyHasPurpose(sender, MANAGEMENT_KEY);\n        require(isActionKey || isManagementKey, \"Invalid key\");\n        _;\n    }\n\n    modifier onlyManagementKeyOrThisContract() {\n        bool isManagementKey = keyHasPurpose(bytes32(uint256(msg.sender)), MANAGEMENT_KEY);\n        require(isManagementKey || msg.sender == address(this), \"Sender not permissioned\");\n        _;\n    }\n\n    function keyExist(bytes32 _key) public view returns(bool) {\n        return keys[_key].key != bytes32(0x0);\n    }\n\n    function getKey(bytes32 _key) public view returns(uint256 purpose, uint256 keyType, bytes32 key) {\n        return (keys[_key].purpose, keys[_key].keyType, keys[_key].key);\n    }\n\n    function getKeyPurpose(bytes32 _key) public view returns(uint256 purpose) {\n        return keys[_key].purpose;\n    }\n\n    function getKeysByPurpose(uint256 _purpose) public view returns(bytes32[] memory) {\n        return keysByPurpose[_purpose];\n    }\n\n    function keyHasPurpose(bytes32 _key, uint256 _purpose) public view returns(bool result) {\n        return keys[_key].purpose == _purpose;\n    }\n\n    function addKey(bytes32 _key, uint256 _purpose, uint256 _type) public onlyManagementKeyOrThisContract returns(bool success) {\n        require(keys[_key].key != _key, \"Key already added\");\n\n        keys[_key].key = _key;\n        keys[_key].purpose = _purpose;\n        keys[_key].keyType = _type;\n\n        keysByPurpose[_purpose].push(_key);\n\n        emit KeyAdded(keys[_key].key,  keys[_key].purpose, keys[_key].keyType);\n\n        return true;\n    }\n\n    function addKeys(bytes32[] memory _keys, uint256[] memory _purposes, uint256[] memory _types) public onlyManagementKeyOrThisContract returns(bool success) {\n        require(_keys.length == _purposes.length && _keys.length == _types.length, \"Unequal argument set lengths\");\n        for (uint i = 0; i < _keys.length; i++) {\n            addKey(_keys[i], _purposes[i], _types[i]);\n        }\n        emit MultipleKeysAdded(_keys.length);\n        return true;\n    }\n\n    function removeKey(bytes32 _key, uint256 _purpose) public  onlyManagementKeyOrThisContract returns(bool success) {\n        require(keys[_key].purpose != MANAGEMENT_KEY || keysByPurpose[MANAGEMENT_KEY].length > 1, \"Can not remove management key\");\n        require(keys[_key].purpose == _purpose, \"Invalid key\");\n\n        emit KeyRemoved(keys[_key].key, keys[_key].purpose, keys[_key].keyType);\n\n        delete keys[_key];\n\n        for (uint i = 0; i < keysByPurpose[_purpose].length; i++) {\n            if (keysByPurpose[_purpose][i] == _key) {\n                keysByPurpose[_purpose][i] = keysByPurpose[_purpose][keysByPurpose[_purpose].length - 1];\n                delete keysByPurpose[_purpose][keysByPurpose[_purpose].length - 1];\n                keysByPurpose[_purpose].length--;\n            }\n        }\n\n        return true;\n    }\n\n    event MultipleKeysAdded(uint count);\n}\n",
  "sourcePath": "/Users/anthony/code/DappStack/dpetition/ethereum/contracts/src/KeyHolder.sol",
  "bytecode": "608060405234801561001057600080fd5b5060405160208061113a8339810180604052602081101561003057600080fd5b8101908080519060200190929190505050806000808381526020019081526020016000206002018190555060016000808381526020019081526020016000206000018190555060016000808381526020019081526020016000206001018190555060016000600181526020019081526020016000208190806001815401808255809150509060018203906000526020600020016000909192909190915055506000808281526020019081526020016000206001015460008083815260200190815260200160002060000154600080848152602001908152602001600020600201547f480000bb1edad8ca1470381cc334b1917fbd51c6531f3a623ea8e0ec7e38a6e960405160405180910390a450610fed8061014d6000396000f3fe6080604052600436106100a3576000357c01000000000000000000000000000000000000000000000000000000009004806353d413c51161007657806353d413c51461020b5780639010f72614610268578063caa3782b146102f8578063d202158d146104fd578063dde5b7a11461055a576100a3565b8063032c1a8a146100a557806312aaac70146100f45780631d3812401461015157806323f74052146101b8575b005b3480156100b157600080fd5b506100de600480360360208110156100c857600080fd5b81019080803590602001909291905050506105b7565b6040518082815260200191505060405180910390f35b34801561010057600080fd5b5061012d6004803603602081101561011757600080fd5b81019080803590602001909291905050506105d6565b60405180848152602001838152602001828152602001935050505060405180910390f35b34801561015d57600080fd5b5061019e6004803603606081101561017457600080fd5b8101908080359060200190929190803590602001909291908035906020019092919050505061062a565b604051808215151515815260200191505060405180910390f35b3480156101c457600080fd5b506101f1600480360360208110156101db57600080fd5b8101908080359060200190929190505050610890565b604051808215151515815260200191505060405180910390f35b34801561021757600080fd5b5061024e6004803603604081101561022e57600080fd5b8101908080359060200190929190803590602001909291905050506108b5565b604051808215151515815260200191505060405180910390f35b34801561027457600080fd5b506102a16004803603602081101561028b57600080fd5b8101908080359060200190929190505050610cad565b6040518080602001828103825283818151815260200191508051906020019060200280838360005b838110156102e45780820151818401526020810190506102c9565b505050509050019250505060405180910390f35b34801561030457600080fd5b506104e36004803603606081101561031b57600080fd5b810190808035906020019064010000000081111561033857600080fd5b82018360208201111561034a57600080fd5b8035906020019184602083028401116401000000008311171561036c57600080fd5b919080806020026020016040519081016040528093929190818152602001838360200280828437600081840152601f19601f820116905080830192505050505050509192919290803590602001906401000000008111156103cc57600080fd5b8201836020820111156103de57600080fd5b8035906020019184602083028401116401000000008311171561040057600080fd5b919080806020026020016040519081016040528093929190818152602001838360200280828437600081840152601f19601f8201169050808301925050505050505091929192908035906020019064010000000081111561046057600080fd5b82018360208201111561047257600080fd5b8035906020019184602083028401116401000000008311171561049457600080fd5b919080806020026020016040519081016040528093929190818152602001838360200280828437600081840152601f19601f820116905080830192505050505050509192919290505050610d18565b604051808215151515815260200191505060405180910390f35b34801561050957600080fd5b506105406004803603604081101561052057600080fd5b810190808035906020019092919080359060200190929190505050610f24565b604051808215151515815260200191505060405180910390f35b34801561056657600080fd5b506105936004803603602081101561057d57600080fd5b8101908080359060200190929190505050610f46565b60405180848152602001838152602001828152602001935050505060405180910390f35b6000806000838152602001908152602001600020600001549050919050565b60008060008060008581526020019081526020016000206000015460008086815260200190815260200160002060010154600080878152602001908152602001600020600201549250925092509193909250565b6000806106513373ffffffffffffffffffffffffffffffffffffffff166001026001610f24565b9050808061068a57503073ffffffffffffffffffffffffffffffffffffffff163373ffffffffffffffffffffffffffffffffffffffff16145b15156106fe576040517f08c379a00000000000000000000000000000000000000000000000000000000081526004018080602001828103825260178152602001807f53656e646572206e6f74207065726d697373696f6e656400000000000000000081525060200191505060405180910390fd5b84600080878152602001908152602001600020600201541415151561078b576040517f08c379a00000000000000000000000000000000000000000000000000000000081526004018080602001828103825260118152602001807f4b657920616c726561647920616464656400000000000000000000000000000081525060200191505060405180910390fd5b846000808781526020019081526020016000206002018190555083600080878152602001908152602001600020600001819055508260008087815260200190815260200160002060010181905550600160008581526020019081526020016000208590806001815401808255809150509060018203906000526020600020016000909192909190915055506000808681526020019081526020016000206001015460008087815260200190815260200160002060000154600080888152602001908152602001600020600201547f480000bb1edad8ca1470381cc334b1917fbd51c6531f3a623ea8e0ec7e38a6e960405160405180910390a460019150509392505050565b6000806001026000808481526020019081526020016000206002015414159050919050565b6000806108dc3373ffffffffffffffffffffffffffffffffffffffff166001026001610f24565b9050808061091557503073ffffffffffffffffffffffffffffffffffffffff163373ffffffffffffffffffffffffffffffffffffffff16145b1515610989576040517f08c379a00000000000000000000000000000000000000000000000000000000081526004018080602001828103825260178152602001807f53656e646572206e6f74207065726d697373696f6e656400000000000000000081525060200191505060405180910390fd5b6001600080868152602001908152602001600020600001541415806109c4575060018060006001815260200190815260200160002080549050115b1515610a38576040517f08c379a000000000000000000000000000000000000000000000000000000000815260040180806020018281038252601d8152602001807f43616e206e6f742072656d6f7665206d616e6167656d656e74206b657900000081525060200191505060405180910390fd5b8260008086815260200190815260200160002060000154141515610ac4576040517f08c379a000000000000000000000000000000000000000000000000000000000815260040180806020018281038252600b8152602001807f496e76616c6964206b657900000000000000000000000000000000000000000081525060200191505060405180910390fd5b6000808581526020019081526020016000206001015460008086815260200190815260200160002060000154600080878152602001908152602001600020600201547f585a4aef50f8267a92b32412b331b20f7f8b96f2245b253b9cc50dcc621d339760405160405180910390a460008085815260200190815260200160002060008082016000905560018201600090556002820160009055505060008090505b6001600085815260200190815260200160002080549050811015610ca157846001600086815260200190815260200160002082815481101515610ba457fe5b90600052602060002001541415610c94576001600085815260200190815260200160002060018060008781526020019081526020016000208054905003815481101515610bed57fe5b90600052602060002001546001600086815260200190815260200160002082815481101515610c1857fe5b90600052602060002001819055506001600085815260200190815260200160002060018060008781526020019081526020016000208054905003815481101515610c5e57fe5b906000526020600020016000905560016000858152602001908152602001600020805480919060019003610c929190610f70565b505b8080600101915050610b65565b50600191505092915050565b606060016000838152602001908152602001600020805480602002602001604051908101604052809291908181526020018280548015610d0c57602002820191906000526020600020905b815481526020019060010190808311610cf8575b50505050509050919050565b600080610d3f3373ffffffffffffffffffffffffffffffffffffffff166001026001610f24565b90508080610d7857503073ffffffffffffffffffffffffffffffffffffffff163373ffffffffffffffffffffffffffffffffffffffff16145b1515610dec576040517f08c379a00000000000000000000000000000000000000000000000000000000081526004018080602001828103825260178152602001807f53656e646572206e6f74207065726d697373696f6e656400000000000000000081525060200191505060405180910390fd5b83518551148015610dfe575082518551145b1515610e72576040517f08c379a000000000000000000000000000000000000000000000000000000000815260040180806020018281038252601c8152602001807f556e657175616c20617267756d656e7420736574206c656e677468730000000081525060200191505060405180910390fd5b60008090505b8551811015610edf57610ed18682815181101515610e9257fe5b906020019060200201518683815181101515610eaa57fe5b906020019060200201518684815181101515610ec257fe5b9060200190602002015161062a565b508080600101915050610e78565b507f60adf38c13a1938c05e8f58e818ac5a3f74aa8652155df92802c3b64932747ee85516040518082815260200191505060405180910390a160019150509392505050565b6000816000808581526020019081526020016000206000015414905092915050565b60006020528060005260406000206000915090508060000154908060010154908060020154905083565b815481835581811115610f9757818360005260206000209182019101610f969190610f9c565b5b505050565b610fbe91905b80821115610fba576000816000905550600101610fa2565b5090565b9056fea165627a7a723058201091d17dd1e465a7a918ec61c7b0d0334bf1e731739d3258cb289b60d5a6af640029"
}