{
  "contractName": "ERC1077",
  "abi": [
    {
      "constant": true,
      "inputs": [
        {
          "name": "_key",
          "type": "bytes32"
        }
      ],
      "name": "getKeyPurpose",
      "outputs": [
        {
          "name": "purpose",
          "type": "uint256"
        }
      ],
      "payable": false,
      "stateMutability": "view",
      "type": "function"
    },
    {
      "constant": true,
      "inputs": [
        {
          "name": "_key",
          "type": "bytes32"
        }
      ],
      "name": "getKey",
      "outputs": [
        {
          "name": "purpose",
          "type": "uint256"
        },
        {
          "name": "keyType",
          "type": "uint256"
        },
        {
          "name": "key",
          "type": "bytes32"
        }
      ],
      "payable": false,
      "stateMutability": "view",
      "type": "function"
    },
    {
      "constant": false,
      "inputs": [
        {
          "name": "_key",
          "type": "bytes32"
        },
        {
          "name": "_purpose",
          "type": "uint256"
        },
        {
          "name": "_type",
          "type": "uint256"
        }
      ],
      "name": "addKey",
      "outputs": [
        {
          "name": "success",
          "type": "bool"
        }
      ],
      "payable": false,
      "stateMutability": "nonpayable",
      "type": "function"
    },
    {
      "constant": true,
      "inputs": [
        {
          "name": "_key",
          "type": "bytes32"
        }
      ],
      "name": "keyExist",
      "outputs": [
        {
          "name": "",
          "type": "bool"
        }
      ],
      "payable": false,
      "stateMutability": "view",
      "type": "function"
    },
    {
      "constant": true,
      "inputs": [],
      "name": "lastNonce",
      "outputs": [
        {
          "name": "",
          "type": "uint256"
        }
      ],
      "payable": false,
      "stateMutability": "view",
      "type": "function"
    },
    {
      "constant": false,
      "inputs": [
        {
          "name": "_key",
          "type": "bytes32"
        },
        {
          "name": "_purpose",
          "type": "uint256"
        }
      ],
      "name": "removeKey",
      "outputs": [
        {
          "name": "success",
          "type": "bool"
        }
      ],
      "payable": false,
      "stateMutability": "nonpayable",
      "type": "function"
    },
    {
      "constant": false,
      "inputs": [
        {
          "name": "to",
          "type": "address"
        },
        {
          "name": "value",
          "type": "uint256"
        },
        {
          "name": "data",
          "type": "bytes"
        },
        {
          "name": "nonce",
          "type": "uint256"
        },
        {
          "name": "gasPrice",
          "type": "uint256"
        },
        {
          "name": "gasToken",
          "type": "address"
        },
        {
          "name": "gasLimit",
          "type": "uint256"
        },
        {
          "name": "operationType",
          "type": "uint8"
        },
        {
          "name": "signatures",
          "type": "bytes"
        }
      ],
      "name": "executeSigned",
      "outputs": [
        {
          "name": "",
          "type": "bytes32"
        }
      ],
      "payable": false,
      "stateMutability": "nonpayable",
      "type": "function"
    },
    {
      "constant": true,
      "inputs": [
        {
          "name": "from",
          "type": "address"
        },
        {
          "name": "to",
          "type": "address"
        },
        {
          "name": "value",
          "type": "uint256"
        },
        {
          "name": "data",
          "type": "bytes"
        },
        {
          "name": "nonce",
          "type": "uint256"
        },
        {
          "name": "gasPrice",
          "type": "uint256"
        },
        {
          "name": "gasToken",
          "type": "address"
        },
        {
          "name": "gasLimit",
          "type": "uint256"
        },
        {
          "name": "operationType",
          "type": "uint8"
        }
      ],
      "name": "calculateMessageHash",
      "outputs": [
        {
          "name": "",
          "type": "bytes32"
        }
      ],
      "payable": false,
      "stateMutability": "pure",
      "type": "function"
    },
    {
      "constant": true,
      "inputs": [
        {
          "name": "from",
          "type": "address"
        },
        {
          "name": "to",
          "type": "address"
        },
        {
          "name": "value",
          "type": "uint256"
        },
        {
          "name": "data",
          "type": "bytes"
        },
        {
          "name": "nonce",
          "type": "uint256"
        },
        {
          "name": "gasPrice",
          "type": "uint256"
        },
        {
          "name": "gasToken",
          "type": "address"
        },
        {
          "name": "gasLimit",
          "type": "uint256"
        },
        {
          "name": "operationType",
          "type": "uint8"
        },
        {
          "name": "signatures",
          "type": "bytes"
        }
      ],
      "name": "getSigner",
      "outputs": [
        {
          "name": "",
          "type": "address"
        }
      ],
      "payable": false,
      "stateMutability": "pure",
      "type": "function"
    },
    {
      "constant": true,
      "inputs": [
        {
          "name": "_purpose",
          "type": "uint256"
        }
      ],
      "name": "getKeysByPurpose",
      "outputs": [
        {
          "name": "",
          "type": "bytes32[]"
        }
      ],
      "payable": false,
      "stateMutability": "view",
      "type": "function"
    },
    {
      "constant": true,
      "inputs": [
        {
          "name": "to",
          "type": "address"
        },
        {
          "name": "value",
          "type": "uint256"
        },
        {
          "name": "data",
          "type": "bytes"
        },
        {
          "name": "nonce",
          "type": "uint256"
        },
        {
          "name": "gasPrice",
          "type": "uint256"
        },
        {
          "name": "gasToken",
          "type": "address"
        },
        {
          "name": "gasLimit",
          "type": "uint256"
        },
        {
          "name": "operationType",
          "type": "uint8"
        },
        {
          "name": "signatures",
          "type": "bytes"
        }
      ],
      "name": "canExecute",
      "outputs": [
        {
          "name": "",
          "type": "bool"
        }
      ],
      "payable": false,
      "stateMutability": "view",
      "type": "function"
    },
    {
      "constant": false,
      "inputs": [
        {
          "name": "_keys",
          "type": "bytes32[]"
        },
        {
          "name": "_purposes",
          "type": "uint256[]"
        },
        {
          "name": "_types",
          "type": "uint256[]"
        }
      ],
      "name": "addKeys",
      "outputs": [
        {
          "name": "success",
          "type": "bool"
        }
      ],
      "payable": false,
      "stateMutability": "nonpayable",
      "type": "function"
    },
    {
      "constant": true,
      "inputs": [
        {
          "name": "_key",
          "type": "bytes32"
        },
        {
          "name": "_purpose",
          "type": "uint256"
        }
      ],
      "name": "keyHasPurpose",
      "outputs": [
        {
          "name": "result",
          "type": "bool"
        }
      ],
      "payable": false,
      "stateMutability": "view",
      "type": "function"
    },
    {
      "constant": true,
      "inputs": [
        {
          "name": "",
          "type": "bytes32"
        }
      ],
      "name": "keys",
      "outputs": [
        {
          "name": "purpose",
          "type": "uint256"
        },
        {
          "name": "keyType",
          "type": "uint256"
        },
        {
          "name": "key",
          "type": "bytes32"
        }
      ],
      "payable": false,
      "stateMutability": "view",
      "type": "function"
    },
    {
      "inputs": [
        {
          "name": "_key",
          "type": "bytes32"
        }
      ],
      "payable": false,
      "stateMutability": "nonpayable",
      "type": "constructor"
    },
    {
      "payable": true,
      "stateMutability": "payable",
      "type": "fallback"
    },
    {
      "anonymous": false,
      "inputs": [
        {
          "indexed": true,
          "name": "messageHash",
          "type": "bytes32"
        },
        {
          "indexed": true,
          "name": "nonce",
          "type": "uint256"
        },
        {
          "indexed": true,
          "name": "success",
          "type": "bool"
        }
      ],
      "name": "ExecutedSigned",
      "type": "event"
    },
    {
      "anonymous": false,
      "inputs": [
        {
          "indexed": false,
          "name": "count",
          "type": "uint256"
        }
      ],
      "name": "MultipleKeysAdded",
      "type": "event"
    },
    {
      "anonymous": false,
      "inputs": [
        {
          "indexed": true,
          "name": "key",
          "type": "bytes32"
        },
        {
          "indexed": true,
          "name": "purpose",
          "type": "uint256"
        },
        {
          "indexed": true,
          "name": "keyType",
          "type": "uint256"
        }
      ],
      "name": "KeyAdded",
      "type": "event"
    },
    {
      "anonymous": false,
      "inputs": [
        {
          "indexed": true,
          "name": "key",
          "type": "bytes32"
        },
        {
          "indexed": true,
          "name": "purpose",
          "type": "uint256"
        },
        {
          "indexed": true,
          "name": "keyType",
          "type": "uint256"
        }
      ],
      "name": "KeyRemoved",
      "type": "event"
    }
  ],
  "source": "pragma solidity ^0.5.0;\n\nimport \"./KeyHolder.sol\";\nimport \"./IERC1077.sol\";\nimport \"./ECRecovery.sol\";\nimport \"./SafeMath.sol\";\nimport \"./ERC20.sol\";\n\ncontract ERC1077 is KeyHolder, IERC1077 {\n    using ECRecovery for bytes32;\n    using SafeMath for uint;\n\n    uint _lastNonce;\n\n    constructor(bytes32 _key) KeyHolder(_key) public {\n    }\n\n    function lastNonce() public view returns (uint) {\n        return _lastNonce;\n    }\n\n    function canExecute(\n        address to,\n        uint256 value,\n        bytes memory data,\n        uint nonce,\n        uint gasPrice,\n        address gasToken,\n        uint gasLimit,\n        OperationType operationType,\n        bytes memory signatures) public view returns (bool)\n    {\n        address signer = getSigner(\n            address(this),\n            to,\n            value,\n            data,\n            nonce,\n            gasPrice,\n            gasToken,\n            gasLimit,\n            operationType,\n            signatures);\n        return keyExist(bytes32(uint256(signer)));\n    }\n\n    function calculateMessageHash(\n        address from,\n        address to,\n        uint256 value,\n        bytes memory data,\n        uint nonce,\n        uint gasPrice,\n        address gasToken,\n        uint gasLimit,\n        OperationType operationType) public pure returns (bytes32)\n    {\n        return keccak256(\n            abi.encodePacked(\n                from,\n                to,\n                value,\n                keccak256(data),\n                nonce,\n                gasPrice,\n                gasToken,\n                gasLimit,\n                uint(operationType)\n        ));\n    }\n\n    function getSigner(\n        address from,\n        address to,\n        uint value,\n        bytes memory data,\n        uint nonce,\n        uint gasPrice,\n        address gasToken,\n        uint gasLimit,\n        OperationType operationType,\n        bytes memory signatures ) public pure returns (address)\n    {\n        return calculateMessageHash(\n            from,\n            to,\n            value,\n            data,\n            nonce,\n            gasPrice,\n            gasToken,\n            gasLimit,\n            operationType).toEthSignedMessageHash().recover(signatures);\n    }\n\n    function executeSigned(\n        address to,\n        uint256 value,\n        bytes memory data,\n        uint nonce,\n        uint gasPrice,\n        address gasToken,\n        uint gasLimit,\n        OperationType operationType,\n        bytes memory signatures) public returns (bytes32)\n    {\n        require(nonce == _lastNonce, \"Invalid nonce\");\n        require(canExecute(to, value, data, nonce, gasPrice, gasToken, gasLimit, operationType, signatures), \"Invalid signature\");\n        uint256 startingGas = gasleft();\n        /* solium-disable-next-line security/no-call-value */\n        (bool success, ) = to.call.value(value)(data);\n        bytes32 messageHash = calculateMessageHash(address(this), to, value, data, nonce, gasPrice, gasToken, gasLimit, operationType);\n        emit ExecutedSigned(messageHash, _lastNonce, success);\n        _lastNonce++;\n        uint256 gasUsed = startingGas.sub(gasleft());\n        refund(gasUsed, gasPrice, gasToken);\n        return messageHash;\n    }\n\n    function refund(uint256 gasUsed, uint gasPrice, address gasToken) private {\n        if (gasToken != address(0)) {\n            ERC20 token = ERC20(gasToken);\n            token.transfer(msg.sender, gasUsed.mul(gasPrice));\n        } else {\n            msg.sender.transfer(gasUsed.mul(gasPrice));\n        }\n    }\n}\n",
  "sourcePath": "/Users/anthony/code/DappStack/dpetition/ethereum/contracts/src/ERC1077.sol",
  "bytecode": "608060405234801561001057600080fd5b506040516020806120838339810180604052602081101561003057600080fd5b810190808051906020019092919050505080806000808381526020019081526020016000206002018190555060016000808381526020019081526020016000206000018190555060016000808381526020019081526020016000206001018190555060016000600181526020019081526020016000208190806001815401808255809150509060018203906000526020600020016000909192909190915055506000808281526020019081526020016000206001015460008083815260200190815260200160002060000154600080848152602001908152602001600020600201547f480000bb1edad8ca1470381cc334b1917fbd51c6531f3a623ea8e0ec7e38a6e960405160405180910390a45050611f348061014f6000396000f3fe6080604052600436106100fa576000357c01000000000000000000000000000000000000000000000000000000009004806370586bb31161009c578063a30c8c7511610076578063a30c8c751461090a578063caa3782b14610af7578063d202158d14610cfc578063dde5b7a114610d59576100fa565b806370586bb3146104d3578063724854b0146106455780639010f7261461087a576100fa565b806323f74052116100d857806323f740521461020f57806352631ab41461026257806353d413c51461028d5780636d633064146102ea576100fa565b8063032c1a8a146100fc57806312aaac701461014b5780631d381240146101a8575b005b34801561010857600080fd5b506101356004803603602081101561011f57600080fd5b8101908080359060200190929190505050610db6565b6040518082815260200191505060405180910390f35b34801561015757600080fd5b506101846004803603602081101561016e57600080fd5b8101908080359060200190929190505050610dd5565b60405180848152602001838152602001828152602001935050505060405180910390f35b3480156101b457600080fd5b506101f5600480360360608110156101cb57600080fd5b81019080803590602001909291908035906020019092919080359060200190929190505050610e29565b604051808215151515815260200191505060405180910390f35b34801561021b57600080fd5b506102486004803603602081101561023257600080fd5b810190808035906020019092919050505061108f565b604051808215151515815260200191505060405180910390f35b34801561026e57600080fd5b506102776110b4565b6040518082815260200191505060405180910390f35b34801561029957600080fd5b506102d0600480360360408110156102b057600080fd5b8101908080359060200190929190803590602001909291905050506110be565b604051808215151515815260200191505060405180910390f35b3480156102f657600080fd5b506104bd600480360361012081101561030e57600080fd5b81019080803573ffffffffffffffffffffffffffffffffffffffff169060200190929190803590602001909291908035906020019064010000000081111561035557600080fd5b82018360208201111561036757600080fd5b8035906020019184600183028401116401000000008311171561038957600080fd5b91908080601f016020809104026020016040519081016040528093929190818152602001838380828437600081840152601f19601f8201169050808301925050505050505091929192908035906020019092919080359060200190929190803573ffffffffffffffffffffffffffffffffffffffff16906020019092919080359060200190929190803560ff1690602001909291908035906020019064010000000081111561043757600080fd5b82018360208201111561044957600080fd5b8035906020019184600183028401116401000000008311171561046b57600080fd5b91908080601f016020809104026020016040519081016040528093929190818152602001838380828437600081840152601f19601f8201169050808301925050505050505091929192905050506114b6565b6040518082815260200191505060405180910390f35b3480156104df57600080fd5b5061062f60048036036101208110156104f757600080fd5b81019080803573ffffffffffffffffffffffffffffffffffffffff169060200190929190803573ffffffffffffffffffffffffffffffffffffffff169060200190929190803590602001909291908035906020019064010000000081111561055e57600080fd5b82018360208201111561057057600080fd5b8035906020019184600183028401116401000000008311171561059257600080fd5b91908080601f016020809104026020016040519081016040528093929190818152602001838380828437600081840152601f19601f8201169050808301925050505050505091929192908035906020019092919080359060200190929190803573ffffffffffffffffffffffffffffffffffffffff16906020019092919080359060200190929190803560ff169060200190929190505050611706565b6040518082815260200191505060405180910390f35b34801561065157600080fd5b50610838600480360361014081101561066957600080fd5b81019080803573ffffffffffffffffffffffffffffffffffffffff169060200190929190803573ffffffffffffffffffffffffffffffffffffffff16906020019092919080359060200190929190803590602001906401000000008111156106d057600080fd5b8201836020820111156106e257600080fd5b8035906020019184600183028401116401000000008311171561070457600080fd5b91908080601f016020809104026020016040519081016040528093929190818152602001838380828437600081840152601f19601f8201169050808301925050505050505091929192908035906020019092919080359060200190929190803573ffffffffffffffffffffffffffffffffffffffff16906020019092919080359060200190929190803560ff169060200190929190803590602001906401000000008111156107b257600080fd5b8201836020820111156107c457600080fd5b803590602001918460018302840111640100000000831117156107e657600080fd5b91908080601f016020809104026020016040519081016040528093929190818152602001838380828437600081840152601f19601f820116905080830192505050505050509192919290505050611841565b604051808273ffffffffffffffffffffffffffffffffffffffff1673ffffffffffffffffffffffffffffffffffffffff16815260200191505060405180910390f35b34801561088657600080fd5b506108b36004803603602081101561089d57600080fd5b810190808035906020019092919050505061187e565b6040518080602001828103825283818151815260200191508051906020019060200280838360005b838110156108f65780820151818401526020810190506108db565b505050509050019250505060405180910390f35b34801561091657600080fd5b50610add600480360361012081101561092e57600080fd5b81019080803573ffffffffffffffffffffffffffffffffffffffff169060200190929190803590602001909291908035906020019064010000000081111561097557600080fd5b82018360208201111561098757600080fd5b803590602001918460018302840111640100000000831117156109a957600080fd5b91908080601f016020809104026020016040519081016040528093929190818152602001838380828437600081840152601f19601f8201169050808301925050505050505091929192908035906020019092919080359060200190929190803573ffffffffffffffffffffffffffffffffffffffff16906020019092919080359060200190929190803560ff16906020019092919080359060200190640100000000811115610a5757600080fd5b820183602082011115610a6957600080fd5b80359060200191846001830284011164010000000083111715610a8b57600080fd5b91908080601f016020809104026020016040519081016040528093929190818152602001838380828437600081840152601f19601f8201169050808301925050505050505091929192905050506118e9565b604051808215151515815260200191505060405180910390f35b348015610b0357600080fd5b50610ce260048036036060811015610b1a57600080fd5b8101908080359060200190640100000000811115610b3757600080fd5b820183602082011115610b4957600080fd5b80359060200191846020830284011164010000000083111715610b6b57600080fd5b919080806020026020016040519081016040528093929190818152602001838360200280828437600081840152601f19601f82011690508083019250505050505050919291929080359060200190640100000000811115610bcb57600080fd5b820183602082011115610bdd57600080fd5b80359060200191846020830284011164010000000083111715610bff57600080fd5b919080806020026020016040519081016040528093929190818152602001838360200280828437600081840152601f19601f82011690508083019250505050505050919291929080359060200190640100000000811115610c5f57600080fd5b820183602082011115610c7157600080fd5b80359060200191846020830284011164010000000083111715610c9357600080fd5b919080806020026020016040519081016040528093929190818152602001838360200280828437600081840152601f19601f820116905080830192505050505050509192919290505050611932565b604051808215151515815260200191505060405180910390f35b348015610d0857600080fd5b50610d3f60048036036040811015610d1f57600080fd5b810190808035906020019092919080359060200190929190505050611b3e565b604051808215151515815260200191505060405180910390f35b348015610d6557600080fd5b50610d9260048036036020811015610d7c57600080fd5b8101908080359060200190929190505050611b60565b60405180848152602001838152602001828152602001935050505060405180910390f35b6000806000838152602001908152602001600020600001549050919050565b60008060008060008581526020019081526020016000206000015460008086815260200190815260200160002060010154600080878152602001908152602001600020600201549250925092509193909250565b600080610e503373ffffffffffffffffffffffffffffffffffffffff166001026001611b3e565b90508080610e8957503073ffffffffffffffffffffffffffffffffffffffff163373ffffffffffffffffffffffffffffffffffffffff16145b1515610efd576040517f08c379a00000000000000000000000000000000000000000000000000000000081526004018080602001828103825260178152602001807f53656e646572206e6f74207065726d697373696f6e656400000000000000000081525060200191505060405180910390fd5b846000808781526020019081526020016000206002015414151515610f8a576040517f08c379a00000000000000000000000000000000000000000000000000000000081526004018080602001828103825260118152602001807f4b657920616c726561647920616464656400000000000000000000000000000081525060200191505060405180910390fd5b846000808781526020019081526020016000206002018190555083600080878152602001908152602001600020600001819055508260008087815260200190815260200160002060010181905550600160008581526020019081526020016000208590806001815401808255809150509060018203906000526020600020016000909192909190915055506000808681526020019081526020016000206001015460008087815260200190815260200160002060000154600080888152602001908152602001600020600201547f480000bb1edad8ca1470381cc334b1917fbd51c6531f3a623ea8e0ec7e38a6e960405160405180910390a460019150509392505050565b6000806001026000808481526020019081526020016000206002015414159050919050565b6000600254905090565b6000806110e53373ffffffffffffffffffffffffffffffffffffffff166001026001611b3e565b9050808061111e57503073ffffffffffffffffffffffffffffffffffffffff163373ffffffffffffffffffffffffffffffffffffffff16145b1515611192576040517f08c379a00000000000000000000000000000000000000000000000000000000081526004018080602001828103825260178152602001807f53656e646572206e6f74207065726d697373696f6e656400000000000000000081525060200191505060405180910390fd5b6001600080868152602001908152602001600020600001541415806111cd575060018060006001815260200190815260200160002080549050115b1515611241576040517f08c379a000000000000000000000000000000000000000000000000000000000815260040180806020018281038252601d8152602001807f43616e206e6f742072656d6f7665206d616e6167656d656e74206b657900000081525060200191505060405180910390fd5b82600080868152602001908152602001600020600001541415156112cd576040517f08c379a000000000000000000000000000000000000000000000000000000000815260040180806020018281038252600b8152602001807f496e76616c6964206b657900000000000000000000000000000000000000000081525060200191505060405180910390fd5b6000808581526020019081526020016000206001015460008086815260200190815260200160002060000154600080878152602001908152602001600020600201547f585a4aef50f8267a92b32412b331b20f7f8b96f2245b253b9cc50dcc621d339760405160405180910390a460008085815260200190815260200160002060008082016000905560018201600090556002820160009055505060008090505b60016000858152602001908152602001600020805490508110156114aa578460016000868152602001908152602001600020828154811015156113ad57fe5b9060005260206000200154141561149d5760016000858152602001908152602001600020600180600087815260200190815260200160002080549050038154811015156113f657fe5b9060005260206000200154600160008681526020019081526020016000208281548110151561142157fe5b9060005260206000200181905550600160008581526020019081526020016000206001806000878152602001908152602001600020805490500381548110151561146757fe5b90600052602060002001600090556001600085815260200190815260200160002080548091906001900361149b9190611eb7565b505b808060010191505061136e565b50600191505092915050565b600060025487141515611531576040517f08c379a000000000000000000000000000000000000000000000000000000000815260040180806020018281038252600d8152602001807f496e76616c6964206e6f6e63650000000000000000000000000000000000000081525060200191505060405180910390fd5b6115428a8a8a8a8a8a8a8a8a6118e9565b15156115b6576040517f08c379a00000000000000000000000000000000000000000000000000000000081526004018080602001828103825260118152602001807f496e76616c6964207369676e617475726500000000000000000000000000000081525060200191505060405180910390fd5b60005a905060008b73ffffffffffffffffffffffffffffffffffffffff168b8b6040518082805190602001908083835b60208310151561160b57805182526020820191506020810190506020830392506115e6565b6001836020036101000a03801982511681845116808217855250505050505090500191505060006040518083038185875af1925050503d806000811461166d576040519150601f19603f3d011682016040523d82523d6000602084013e611672565b606091505b505090506000611689308e8e8e8e8e8e8e8e611706565b9050811515600254827f30c13bf5d64d4bb93ec9b93f68b635ddc58b81da7e18c8b4fbb5061ceb70cd4160405160405180910390a460026000815480929190600101919050555060006116e55a85611b8a90919063ffffffff16565b90506116f2818b8b611bac565b819450505050509998505050505050505050565b600089898989805190602001208989898989600281111561172357fe5b604051602001808a73ffffffffffffffffffffffffffffffffffffffff1673ffffffffffffffffffffffffffffffffffffffff166c010000000000000000000000000281526014018973ffffffffffffffffffffffffffffffffffffffff1673ffffffffffffffffffffffffffffffffffffffff166c010000000000000000000000000281526014018881526020018781526020018681526020018581526020018473ffffffffffffffffffffffffffffffffffffffff1673ffffffffffffffffffffffffffffffffffffffff166c0100000000000000000000000002815260140183815260200182815260200199505050505050505050506040516020818303038152906040528051906020012090509998505050505050505050565b600061186e8261186061185b8e8e8e8e8e8e8e8e8e611706565b611d3d565b611d9590919063ffffffff16565b90509a9950505050505050505050565b6060600160008381526020019081526020016000208054806020026020016040519081016040528092919081815260200182805480156118dd57602002820191906000526020600020905b8154815260200190600101908083116118c9575b50505050509050919050565b6000806118fe308c8c8c8c8c8c8c8c8c611841565b90506119228173ffffffffffffffffffffffffffffffffffffffff1660010261108f565b9150509998505050505050505050565b6000806119593373ffffffffffffffffffffffffffffffffffffffff166001026001611b3e565b9050808061199257503073ffffffffffffffffffffffffffffffffffffffff163373ffffffffffffffffffffffffffffffffffffffff16145b1515611a06576040517f08c379a00000000000000000000000000000000000000000000000000000000081526004018080602001828103825260178152602001807f53656e646572206e6f74207065726d697373696f6e656400000000000000000081525060200191505060405180910390fd5b83518551148015611a18575082518551145b1515611a8c576040517f08c379a000000000000000000000000000000000000000000000000000000000815260040180806020018281038252601c8152602001807f556e657175616c20617267756d656e7420736574206c656e677468730000000081525060200191505060405180910390fd5b60008090505b8551811015611af957611aeb8682815181101515611aac57fe5b906020019060200201518683815181101515611ac457fe5b906020019060200201518684815181101515611adc57fe5b90602001906020020151610e29565b508080600101915050611a92565b507f60adf38c13a1938c05e8f58e818ac5a3f74aa8652155df92802c3b64932747ee85516040518082815260200191505060405180910390a160019150509392505050565b6000816000808581526020019081526020016000206000015414905092915050565b60006020528060005260406000206000915090508060000154908060010154908060020154905083565b6000828211151515611b9b57600080fd5b600082840390508091505092915050565b600073ffffffffffffffffffffffffffffffffffffffff168173ffffffffffffffffffffffffffffffffffffffff16141515611cde5760008190508073ffffffffffffffffffffffffffffffffffffffff1663a9059cbb33611c178688611e7990919063ffffffff16565b6040518363ffffffff167c0100000000000000000000000000000000000000000000000000000000028152600401808373ffffffffffffffffffffffffffffffffffffffff1673ffffffffffffffffffffffffffffffffffffffff16815260200182815260200192505050602060405180830381600087803b158015611c9c57600080fd5b505af1158015611cb0573d6000803e3d6000fd5b505050506040513d6020811015611cc657600080fd5b81019080805190602001909291905050505050611d38565b3373ffffffffffffffffffffffffffffffffffffffff166108fc611d0b8486611e7990919063ffffffff16565b9081150290604051600060405180830381858888f19350505050158015611d36573d6000803e3d6000fd5b505b505050565b60008160405160200180807f19457468657265756d205369676e6564204d6573736167653a0a333200000000815250601c01828152602001915050604051602081830303815290604052805190602001209050919050565b60008060008060418551141515611db25760009350505050611e73565b6020850151925060408501519150606085015160001a9050601b8160ff161015611ddd57601b810190505b601b8160ff1614158015611df55750601c8160ff1614155b15611e065760009350505050611e73565b60018682858560405160008152602001604052604051808581526020018460ff1660ff1681526020018381526020018281526020019450505050506020604051602081039080840390855afa158015611e63573d6000803e3d6000fd5b5050506020604051035193505050505b92915050565b600080831415611e8c5760009050611eb1565b60008284029050828482811515611e9f57fe5b04141515611eac57600080fd5b809150505b92915050565b815481835581811115611ede57818360005260206000209182019101611edd9190611ee3565b5b505050565b611f0591905b80821115611f01576000816000905550600101611ee9565b5090565b9056fea165627a7a7230582060822a4ae2b980689053e3f31a154d312dc38df4f24b5a46a4b05947055cdcab0029"
}