{
  "contractName": "Petition",
  "abi": [
    {
      "constant": true,
      "inputs": [
        {
          "name": "_id",
          "type": "uint256"
        },
        {
          "name": "_sender",
          "type": "address"
        }
      ],
      "name": "didWithdraw",
      "outputs": [
        {
          "name": "",
          "type": "bool"
        }
      ],
      "payable": false,
      "stateMutability": "view",
      "type": "function"
    },
    {
      "constant": false,
      "inputs": [
        {
          "name": "_title",
          "type": "string"
        },
        {
          "name": "_descriptionHash",
          "type": "string"
        },
        {
          "name": "_expiration",
          "type": "uint256"
        },
        {
          "name": "_deposit",
          "type": "uint256"
        },
        {
          "name": "_owner",
          "type": "address"
        }
      ],
      "name": "create",
      "outputs": [],
      "payable": false,
      "stateMutability": "nonpayable",
      "type": "function"
    },
    {
      "constant": true,
      "inputs": [],
      "name": "length",
      "outputs": [
        {
          "name": "",
          "type": "uint256"
        }
      ],
      "payable": false,
      "stateMutability": "view",
      "type": "function"
    },
    {
      "constant": true,
      "inputs": [
        {
          "name": "",
          "type": "address"
        },
        {
          "name": "",
          "type": "uint256"
        }
      ],
      "name": "signed",
      "outputs": [
        {
          "name": "",
          "type": "uint256"
        }
      ],
      "payable": false,
      "stateMutability": "view",
      "type": "function"
    },
    {
      "constant": true,
      "inputs": [
        {
          "name": "",
          "type": "uint256"
        }
      ],
      "name": "petitions",
      "outputs": [
        {
          "name": "title",
          "type": "string"
        },
        {
          "name": "descriptionHash",
          "type": "string"
        },
        {
          "name": "expiration",
          "type": "uint256"
        },
        {
          "name": "deposit",
          "type": "uint256"
        },
        {
          "name": "owner",
          "type": "address"
        }
      ],
      "payable": false,
      "stateMutability": "view",
      "type": "function"
    },
    {
      "constant": true,
      "inputs": [
        {
          "name": "_id",
          "type": "uint256"
        },
        {
          "name": "_sender",
          "type": "address"
        }
      ],
      "name": "canWithdraw",
      "outputs": [
        {
          "name": "",
          "type": "bool"
        }
      ],
      "payable": false,
      "stateMutability": "view",
      "type": "function"
    },
    {
      "constant": true,
      "inputs": [
        {
          "name": "",
          "type": "uint256"
        },
        {
          "name": "",
          "type": "uint256"
        }
      ],
      "name": "signers",
      "outputs": [
        {
          "name": "",
          "type": "address"
        }
      ],
      "payable": false,
      "stateMutability": "view",
      "type": "function"
    },
    {
      "constant": false,
      "inputs": [],
      "name": "renounceOwnership",
      "outputs": [],
      "payable": false,
      "stateMutability": "nonpayable",
      "type": "function"
    },
    {
      "constant": false,
      "inputs": [
        {
          "name": "_id",
          "type": "uint256"
        },
        {
          "name": "_sender",
          "type": "address"
        }
      ],
      "name": "sign",
      "outputs": [],
      "payable": false,
      "stateMutability": "nonpayable",
      "type": "function"
    },
    {
      "constant": true,
      "inputs": [],
      "name": "owner",
      "outputs": [
        {
          "name": "",
          "type": "address"
        }
      ],
      "payable": false,
      "stateMutability": "view",
      "type": "function"
    },
    {
      "constant": true,
      "inputs": [],
      "name": "isOwner",
      "outputs": [
        {
          "name": "",
          "type": "bool"
        }
      ],
      "payable": false,
      "stateMutability": "view",
      "type": "function"
    },
    {
      "constant": true,
      "inputs": [
        {
          "name": "",
          "type": "address"
        },
        {
          "name": "",
          "type": "uint256"
        }
      ],
      "name": "withdraws",
      "outputs": [
        {
          "name": "",
          "type": "uint256"
        }
      ],
      "payable": false,
      "stateMutability": "view",
      "type": "function"
    },
    {
      "constant": false,
      "inputs": [
        {
          "name": "_id",
          "type": "uint256"
        },
        {
          "name": "_sender",
          "type": "address"
        }
      ],
      "name": "markAsWithdraw",
      "outputs": [],
      "payable": false,
      "stateMutability": "nonpayable",
      "type": "function"
    },
    {
      "constant": true,
      "inputs": [
        {
          "name": "_id",
          "type": "uint256"
        },
        {
          "name": "_sender",
          "type": "address"
        }
      ],
      "name": "didSign",
      "outputs": [
        {
          "name": "",
          "type": "bool"
        }
      ],
      "payable": false,
      "stateMutability": "view",
      "type": "function"
    },
    {
      "constant": false,
      "inputs": [
        {
          "name": "newOwner",
          "type": "address"
        }
      ],
      "name": "transferOwnership",
      "outputs": [],
      "payable": false,
      "stateMutability": "nonpayable",
      "type": "function"
    },
    {
      "anonymous": false,
      "inputs": [
        {
          "indexed": false,
          "name": "_id",
          "type": "uint256"
        }
      ],
      "name": "PetitionCreated",
      "type": "event"
    },
    {
      "anonymous": false,
      "inputs": [
        {
          "indexed": false,
          "name": "_id",
          "type": "uint256"
        },
        {
          "indexed": false,
          "name": "_signer",
          "type": "address"
        }
      ],
      "name": "PetitionSigned",
      "type": "event"
    },
    {
      "anonymous": false,
      "inputs": [
        {
          "indexed": false,
          "name": "_id",
          "type": "uint256"
        },
        {
          "indexed": false,
          "name": "_signer",
          "type": "address"
        }
      ],
      "name": "PetitionMarkAsWithdraw",
      "type": "event"
    },
    {
      "anonymous": false,
      "inputs": [
        {
          "indexed": true,
          "name": "previousOwner",
          "type": "address"
        },
        {
          "indexed": true,
          "name": "newOwner",
          "type": "address"
        }
      ],
      "name": "OwnershipTransferred",
      "type": "event"
    }
  ],
  "source": "pragma solidity ^0.5.0;\n\nimport \"./Ownable.sol\";\n\ncontract Petition is Ownable {\n\n    event PetitionCreated(uint256 _id);\n    event PetitionSigned(uint256 _id, address _signer);\n    event PetitionMarkAsWithdraw(uint256 _id, address _signer);\n\n    struct Details {\n        string title;\n        string descriptionHash;\n        uint256 expiration;\n        uint256 deposit;\n        address owner;\n    }\n\n    Details[] public petitions;\n    mapping (uint256 => address[]) public signers;\n    mapping (address => uint256[]) public signed;\n    mapping (address => uint256[]) public withdraws;\n\n    function length() public view returns(uint256) {\n        return petitions.length;\n    }\n\n    function create(string memory _title,\n                    string memory _descriptionHash,\n                    uint256 _expiration,\n                    uint256 _deposit,\n                    address _owner) public onlyOwner {\n        require(bytes(_title).length > 0, \"Title cannot be empty.\");\n        require(bytes(_descriptionHash).length > 0, \"DescriptionHash cannot be empty.\");\n        require(_deposit > 0, \"Deposit cannot be less than 1 Wei.\");\n\n        uint256 minExpiration = now + 1 days;\n        require(_expiration > minExpiration, \"Must expires in at least 1 day.\");\n\n        Details memory details = Details(_title, _descriptionHash, _expiration, _deposit, _owner);\n        uint256 id = petitions.push(details) - 1;\n\n        emit PetitionCreated(id);\n    }\n\n    function sign(uint256 _id, address _sender) public onlyOwner {\n        Details storage details = petitions[_id];\n        require(details.owner != address(0x0), \"Petition does not exist.\");\n\n        bool alreadySigned = didSign(_id, _sender);\n        require(alreadySigned == false, \"Already signed.\");\n\n        signers[_id].push(_sender);\n        signed[_sender].push(_id);\n\n        emit PetitionSigned(_id, _sender);\n    }\n\n    function didSign(uint256 _id, address _sender) public view returns (bool) {\n        for (uint i = 0; i < signed[_sender].length; i++) {\n            if (signed[_sender][i] == _id) {\n                return true;\n            }\n        }\n\n        return false;\n    }\n\n    function didWithdraw(uint256 _id, address _sender) public view returns (bool) {\n        for (uint i = 0; i < withdraws[_sender].length; i++) {\n            if (withdraws[_sender][i] == _id) {\n                return true;\n            }\n        }\n\n        return false;\n    }\n\n    function canWithdraw(uint256 _id, address _sender) public view returns (bool) {\n        Details storage details = petitions[_id];\n        require(details.owner != address(0x0), \"Petition does not exist.\");\n\n        bool alreadySigned = didSign(_id, _sender);\n        require(alreadySigned == true, \"Not signed.\");\n\n        bool alreadyWithdraw = didWithdraw(_id, _sender);\n        require(alreadyWithdraw == false, \"Already withdrawn.\");\n\n        return details.expiration >= now;\n    }\n\n    function markAsWithdraw(uint256 _id, address _sender) public onlyOwner {\n        Details storage details = petitions[_id];\n        require(details.owner != address(0x0), \"Petition does not exist.\");\n\n        bool alreadySigned = didSign(_id, _sender);\n        require(alreadySigned == true, \"Not signed.\");\n\n        bool alreadyWithdraw = didWithdraw(_id, _sender);\n        require(alreadyWithdraw == false, \"Already withdrawn.\");\n        \n        require(details.expiration >= now, \"Petition cannot be withdraw yet.\");\n        \n        withdraws[_sender].push(_id);\n\n        emit PetitionMarkAsWithdraw(_id, _sender);\n    }\n}",
  "sourcePath": "/Users/anthony/code/DappStack/dpetition/ethereum/contracts/src/Petition.sol",
  "bytecode": "6080604052336000806101000a81548173ffffffffffffffffffffffffffffffffffffffff021916908373ffffffffffffffffffffffffffffffffffffffff1602179055506000809054906101000a900473ffffffffffffffffffffffffffffffffffffffff1673ffffffffffffffffffffffffffffffffffffffff16600073ffffffffffffffffffffffffffffffffffffffff167f8be0079c531659141344cd1fd0a4f28419497f9722a3daafe3b4186f6b6457e060405160405180910390a3611af3806100cf6000396000f3fe608060405234801561001057600080fd5b5060043610610112576000357c010000000000000000000000000000000000000000000000000000000090048063715018a6116100b4578063d15801e111610083578063d15801e114610679578063db53b5fc146106db578063e26c3a6d14610729578063f2fde38b1461078f57610112565b8063715018a6146105b55780637cacde3f146105bf5780638da5cb5b1461060d5780638f32d59b1461065757610112565b806324e5bfa7116100f057806324e5bfa7146103215780633ad50ded146103835780633ea01b5d146104d7578063488c3f251461053d57610112565b80630112e102146101175780630b1b75a41461017d5780631f7b6d3214610303575b600080fd5b6101636004803603604081101561012d57600080fd5b8101908080359060200190929190803573ffffffffffffffffffffffffffffffffffffffff1690602001909291905050506107d3565b604051808215151515815260200191505060405180910390f35b610301600480360360a081101561019357600080fd5b81019080803590602001906401000000008111156101b057600080fd5b8201836020820111156101c257600080fd5b803590602001918460018302840111640100000000831117156101e457600080fd5b91908080601f016020809104026020016040519081016040528093929190818152602001838380828437600081840152601f19601f8201169050808301925050505050505091929192908035906020019064010000000081111561024757600080fd5b82018360208201111561025957600080fd5b8035906020019184600183028401116401000000008311171561027b57600080fd5b91908080601f016020809104026020016040519081016040528093929190818152602001838380828437600081840152601f19601f8201169050808301925050505050505091929192908035906020019092919080359060200190929190803573ffffffffffffffffffffffffffffffffffffffff1690602001909291905050506108a6565b005b61030b610bdb565b6040518082815260200191505060405180910390f35b61036d6004803603604081101561033757600080fd5b81019080803573ffffffffffffffffffffffffffffffffffffffff16906020019092919080359060200190929190505050610be8565b6040518082815260200191505060405180910390f35b6103af6004803603602081101561039957600080fd5b8101908080359060200190929190505050610c18565b6040518080602001806020018681526020018581526020018473ffffffffffffffffffffffffffffffffffffffff1673ffffffffffffffffffffffffffffffffffffffff168152602001838103835288818151815260200191508051906020019080838360005b83811015610431578082015181840152602081019050610416565b50505050905090810190601f16801561045e5780820380516001836020036101000a031916815260200191505b50838103825287818151815260200191508051906020019080838360005b8381101561049757808201518184015260208101905061047c565b50505050905090810190601f1680156104c45780820380516001836020036101000a031916815260200191505b5097505050505050505060405180910390f35b610523600480360360408110156104ed57600080fd5b8101908080359060200190929190803573ffffffffffffffffffffffffffffffffffffffff169060200190929190505050610dad565b604051808215151515815260200191505060405180910390f35b6105736004803603604081101561055357600080fd5b810190808035906020019092919080359060200190929190505050610fbf565b604051808273ffffffffffffffffffffffffffffffffffffffff1673ffffffffffffffffffffffffffffffffffffffff16815260200191505060405180910390f35b6105bd61100c565b005b61060b600480360360408110156105d557600080fd5b8101908080359060200190929190803573ffffffffffffffffffffffffffffffffffffffff1690602001909291905050506110de565b005b6106156113b6565b604051808273ffffffffffffffffffffffffffffffffffffffff1673ffffffffffffffffffffffffffffffffffffffff16815260200191505060405180910390f35b61065f6113df565b604051808215151515815260200191505060405180910390f35b6106c56004803603604081101561068f57600080fd5b81019080803573ffffffffffffffffffffffffffffffffffffffff16906020019092919080359060200190929190505050611436565b6040518082815260200191505060405180910390f35b610727600480360360408110156106f157600080fd5b8101908080359060200190929190803573ffffffffffffffffffffffffffffffffffffffff169060200190929190505050611466565b005b6107756004803603604081101561073f57600080fd5b8101908080359060200190929190803573ffffffffffffffffffffffffffffffffffffffff1690602001909291905050506117ce565b604051808215151515815260200191505060405180910390f35b6107d1600480360360208110156107a557600080fd5b81019080803573ffffffffffffffffffffffffffffffffffffffff1690602001909291905050506118a1565b005b600080600090505b600460008473ffffffffffffffffffffffffffffffffffffffff1673ffffffffffffffffffffffffffffffffffffffff1681526020019081526020016000208054905081101561089a5783600460008573ffffffffffffffffffffffffffffffffffffffff1673ffffffffffffffffffffffffffffffffffffffff1681526020019081526020016000208281548110151561087257fe5b9060005260206000200154141561088d5760019150506108a0565b80806001019150506107db565b50600090505b92915050565b6108ae6113df565b15156108b957600080fd5b60008551111515610932576040517f08c379a00000000000000000000000000000000000000000000000000000000081526004018080602001828103825260168152602001807f5469746c652063616e6e6f7420626520656d7074792e0000000000000000000081525060200191505060405180910390fd5b600084511115156109ab576040517f08c379a00000000000000000000000000000000000000000000000000000000081526004018080602001828103825260208152602001807f4465736372697074696f6e486173682063616e6e6f7420626520656d7074792e81525060200191505060405180910390fd5b600082111515610a06576040517f08c379a0000000000000000000000000000000000000000000000000000000008152600401808060200182810382526022815260200180611aa66022913960400191505060405180910390fd5b600062015180420190508084111515610a87576040517f08c379a000000000000000000000000000000000000000000000000000000000815260040180806020018281038252601f8152602001807f4d757374206578706972657320696e206174206c656173742031206461792e0081525060200191505060405180910390fd5b610a8f6119ba565b60a0604051908101604052808881526020018781526020018681526020018581526020018473ffffffffffffffffffffffffffffffffffffffff168152509050600060018083908060018154018082558091505090600182039060005260206000209060050201600090919290919091506000820151816000019080519060200190610b1c929190611a00565b506020820151816001019080519060200190610b39929190611a00565b50604082015181600201556060820151816003015560808201518160040160006101000a81548173ffffffffffffffffffffffffffffffffffffffff021916908373ffffffffffffffffffffffffffffffffffffffff16021790555050500390507fb7aa108f46996bbc56cca4185c02d9a2cedfac4be19879ed88480061aa6e602c816040518082815260200191505060405180910390a15050505050505050565b6000600180549050905090565b600360205281600052604060002081815481101515610c0357fe5b90600052602060002001600091509150505481565b600181815481101515610c2757fe5b9060005260206000209060050201600091509050806000018054600181600116156101000203166002900480601f016020809104026020016040519081016040528092919081815260200182805460018160011615610100020316600290048015610cd35780601f10610ca857610100808354040283529160200191610cd3565b820191906000526020600020905b815481529060010190602001808311610cb657829003601f168201915b505050505090806001018054600181600116156101000203166002900480601f016020809104026020016040519081016040528092919081815260200182805460018160011615610100020316600290048015610d715780601f10610d4657610100808354040283529160200191610d71565b820191906000526020600020905b815481529060010190602001808311610d5457829003601f168201915b5050505050908060020154908060030154908060040160009054906101000a900473ffffffffffffffffffffffffffffffffffffffff16905085565b600080600184815481101515610dbf57fe5b90600052602060002090600502019050600073ffffffffffffffffffffffffffffffffffffffff168160040160009054906101000a900473ffffffffffffffffffffffffffffffffffffffff1673ffffffffffffffffffffffffffffffffffffffff1614151515610e98576040517f08c379a00000000000000000000000000000000000000000000000000000000081526004018080602001828103825260188152602001807f5065746974696f6e20646f6573206e6f742065786973742e000000000000000081525060200191505060405180910390fd5b6000610ea485856117ce565b905060011515811515141515610f22576040517f08c379a000000000000000000000000000000000000000000000000000000000815260040180806020018281038252600b8152602001807f4e6f74207369676e65642e00000000000000000000000000000000000000000081525060200191505060405180910390fd5b6000610f2e86866107d3565b905060001515811515141515610fac576040517f08c379a00000000000000000000000000000000000000000000000000000000081526004018080602001828103825260128152602001807f416c72656164792077697468647261776e2e000000000000000000000000000081525060200191505060405180910390fd5b4283600201541015935050505092915050565b600260205281600052604060002081815481101515610fda57fe5b906000526020600020016000915091509054906101000a900473ffffffffffffffffffffffffffffffffffffffff1681565b6110146113df565b151561101f57600080fd5b600073ffffffffffffffffffffffffffffffffffffffff166000809054906101000a900473ffffffffffffffffffffffffffffffffffffffff1673ffffffffffffffffffffffffffffffffffffffff167f8be0079c531659141344cd1fd0a4f28419497f9722a3daafe3b4186f6b6457e060405160405180910390a360008060006101000a81548173ffffffffffffffffffffffffffffffffffffffff021916908373ffffffffffffffffffffffffffffffffffffffff160217905550565b6110e66113df565b15156110f157600080fd5b600060018381548110151561110257fe5b90600052602060002090600502019050600073ffffffffffffffffffffffffffffffffffffffff168160040160009054906101000a900473ffffffffffffffffffffffffffffffffffffffff1673ffffffffffffffffffffffffffffffffffffffff16141515156111db576040517f08c379a00000000000000000000000000000000000000000000000000000000081526004018080602001828103825260188152602001807f5065746974696f6e20646f6573206e6f742065786973742e000000000000000081525060200191505060405180910390fd5b60006111e784846117ce565b905060001515811515141515611265576040517f08c379a000000000000000000000000000000000000000000000000000000000815260040180806020018281038252600f8152602001807f416c7265616479207369676e65642e000000000000000000000000000000000081525060200191505060405180910390fd5b600260008581526020019081526020016000208390806001815401808255809150509060018203906000526020600020016000909192909190916101000a81548173ffffffffffffffffffffffffffffffffffffffff021916908373ffffffffffffffffffffffffffffffffffffffff16021790555050600360008473ffffffffffffffffffffffffffffffffffffffff1673ffffffffffffffffffffffffffffffffffffffff1681526020019081526020016000208490806001815401808255809150509060018203906000526020600020016000909192909190915055507fa24773234734fa56d66ce98fb6d0c8e4b38c3ce67e8a0cfa10756d0909ba4ed28484604051808381526020018273ffffffffffffffffffffffffffffffffffffffff1673ffffffffffffffffffffffffffffffffffffffff1681526020019250505060405180910390a150505050565b60008060009054906101000a900473ffffffffffffffffffffffffffffffffffffffff16905090565b60008060009054906101000a900473ffffffffffffffffffffffffffffffffffffffff1673ffffffffffffffffffffffffffffffffffffffff163373ffffffffffffffffffffffffffffffffffffffff1614905090565b60046020528160005260406000208181548110151561145157fe5b90600052602060002001600091509150505481565b61146e6113df565b151561147957600080fd5b600060018381548110151561148a57fe5b90600052602060002090600502019050600073ffffffffffffffffffffffffffffffffffffffff168160040160009054906101000a900473ffffffffffffffffffffffffffffffffffffffff1673ffffffffffffffffffffffffffffffffffffffff1614151515611563576040517f08c379a00000000000000000000000000000000000000000000000000000000081526004018080602001828103825260188152602001807f5065746974696f6e20646f6573206e6f742065786973742e000000000000000081525060200191505060405180910390fd5b600061156f84846117ce565b9050600115158115151415156115ed576040517f08c379a000000000000000000000000000000000000000000000000000000000815260040180806020018281038252600b8152602001807f4e6f74207369676e65642e00000000000000000000000000000000000000000081525060200191505060405180910390fd5b60006115f985856107d3565b905060001515811515141515611677576040517f08c379a00000000000000000000000000000000000000000000000000000000081526004018080602001828103825260128152602001807f416c72656164792077697468647261776e2e000000000000000000000000000081525060200191505060405180910390fd5b428360020154101515156116f3576040517f08c379a00000000000000000000000000000000000000000000000000000000081526004018080602001828103825260208152602001807f5065746974696f6e2063616e6e6f74206265207769746864726177207965742e81525060200191505060405180910390fd5b600460008573ffffffffffffffffffffffffffffffffffffffff1673ffffffffffffffffffffffffffffffffffffffff1681526020019081526020016000208590806001815401808255809150509060018203906000526020600020016000909192909190915055507fd10bb6100109c3283dc8681f6ba36643d945f1457c2198541f73f2f7794391538585604051808381526020018273ffffffffffffffffffffffffffffffffffffffff1673ffffffffffffffffffffffffffffffffffffffff1681526020019250505060405180910390a15050505050565b600080600090505b600360008473ffffffffffffffffffffffffffffffffffffffff1673ffffffffffffffffffffffffffffffffffffffff168152602001908152602001600020805490508110156118955783600360008573ffffffffffffffffffffffffffffffffffffffff1673ffffffffffffffffffffffffffffffffffffffff1681526020019081526020016000208281548110151561186d57fe5b9060005260206000200154141561188857600191505061189b565b80806001019150506117d6565b50600090505b92915050565b6118a96113df565b15156118b457600080fd5b6118bd816118c0565b50565b600073ffffffffffffffffffffffffffffffffffffffff168173ffffffffffffffffffffffffffffffffffffffff16141515156118fc57600080fd5b8073ffffffffffffffffffffffffffffffffffffffff166000809054906101000a900473ffffffffffffffffffffffffffffffffffffffff1673ffffffffffffffffffffffffffffffffffffffff167f8be0079c531659141344cd1fd0a4f28419497f9722a3daafe3b4186f6b6457e060405160405180910390a3806000806101000a81548173ffffffffffffffffffffffffffffffffffffffff021916908373ffffffffffffffffffffffffffffffffffffffff16021790555050565b60a06040519081016040528060608152602001606081526020016000815260200160008152602001600073ffffffffffffffffffffffffffffffffffffffff1681525090565b828054600181600116156101000203166002900490600052602060002090601f016020900481019282601f10611a4157805160ff1916838001178555611a6f565b82800160010185558215611a6f579182015b82811115611a6e578251825591602001919060010190611a53565b5b509050611a7c9190611a80565b5090565b611aa291905b80821115611a9e576000816000905550600101611a86565b5090565b9056fe4465706f7369742063616e6e6f74206265206c657373207468616e2031205765692ea165627a7a72305820642b04cb2850afc81016c0587e36054b2debc1358854ba236794d4d29ca985c90029"
}